:100000000C942A000C943F000C943F000C943F0089
:100010000C943F000C943F000C943F000C943F0064
:100020000C943F000C943F000C943F000C943F0054
:100030000C943F000C943F000C943F000C943F0044
:100040000C943F000C943F000C943F000C943F0034
:100050000C943F0011241FBECFE5D8E0DEBFCDBF1A
:1000600010E0A0E6B0E0ECE3F6E002C005900D92EF
:10007000A837B107D9F70E942E010C941C030C94E9
:10008000000082B3806482BB00C082B38F7B82BBDE
:100090000895CF93DF93D82F662321F082B3806138
:1000A00082BB03C082B38F7E82BB82B38F7D82BB53
:1000B00081B38F6081BBC2B3C07F8D2F82958F705B
:1000C0008C2B82BB0E944100DF70DC2BD2BB0E94D4
:1000D0004100CF60C2BBDF91CF910895882321F00A
:1000E00082B3806182BB03C082B38F7E82BB82B346
:1000F000806282BB81B3807F81BB82B3806482BB1C
:1001000000C090B39295907F82B38F7B82BB00C07A
:1001100082B3806482BB00C080B38F7022B32F7B18
:1001200022BB892B089580E00E946E008823DCF3B7
:1001300088E090E00197F1F780E00E946E0008955A
:10014000CF93C82F0E94930060E08C2F0E9449003B
:10015000CF910895611104C080580E94A0000895B5
:1001600080540E94A000089581E00E94A00008959C
:1001700082E00E94A0000895CF93C82F0E949300B0
:10018000CA3049F4803410F480E401C080E0805823
:100190000E94A00004C061E08C2F0E944900CF9112
:1001A0000895CF93DF93FC0103C00E94BC00FE01C1
:1001B000EF01219680818111F8CFDF91CF910895D1
:1001C0001F93CF93DF93182F81B38F6781BB80E09C
:1001D0009AEF0197F1F782B3826082BB82B38160AC
:1001E00082BB0E94410080E09EE40197F1F70E94EB
:1001F0004100C0E0D1E0CE010197F1F70E9441003B
:10020000CE010197F1F782B38E7F82BB0E9441003D
:100210002197F1F788E20E94A00088E00E94A000E8
:100220000E94B40086E00E94A000812F0E94A000DE
:10023000DF91CF911F91089580E487B987E886B94F
:100240000895877097B1987F892B87B986B18064AC
:1002500086B93699FECF84B195B10895CF93DF93D7
:10026000CDB7DEB72A970FB6F894DEBF0FBECDBF6D
:100270008FEF87BB0E941C018EE00E94E0000E946D
:10028000B40060E080E00E94AA008FE19EE4019744
:10029000F1F700C0000080E00E942101BC0180E075
:1002A00090E00E944E0227ED33EA40E050E40E94C5
:1002B000A6010E9418026B017C018B0160E080E0C6
:1002C0000E94AA004AE050E0BE016F5F7F4FC60166
:1002D0000E94DC0280E690E00E94D100CE010196EF
:1002E0000E94D10060E087E00E94AA0086E690E0CC
:1002F0000E94D1009FEF21EE84E091502040804089
:10030000E1F700C000000931110574F00E94B4004B
:100310000E94B80061E080E00E94AA0088E690E0B8
:100320000E94D10081E088BB093111050CF0B3CFE8
:100330000E94B4000E94B80061E087E00E94AA0019
:100340008FE690E00E94D10018BAA5CF0E94BA01B2
:100350000C94A2020E949B0258F00E94940240F06A
:1003600029F45F3F29F00C948B0251110C94D602B2
:100370000C9491020E94B30268F39923B1F35523C0
:1003800091F3951B550BBB27AA27621773078407A8
:1003900038F09F5F5F4F220F331F441FAA1FA9F33E
:1003A00035D00E2E3AF0E0E832D091505040E6952C
:1003B000001CCAF72BD0FE2F29D0660F771F881F8D
:1003C000BB1F261737074807AB07B0E809F0BB0B80
:1003D000802DBF01FF2793585F4F3AF09E3F510594
:1003E00078F00C948B020C94D6025F3FE4F3983EB5
:1003F000D4F3869577956795B795F7959F5FC9F77D
:10040000880F911D9695879597F90895E1E0660FFD
:10041000771F881FBB1F621773078407BA0720F076
:10042000621B730B840BBA0BEE1F88F7E0950895DF
:100430000E941F026894B1110C94D60208950E9484
:10044000BB0288F09F5798F0B92F9927B751B0F0A9
:10045000E1F0660F771F881F991F1AF0BA95C9F748
:1004600014C0B13091F00E94D502B1E008950C940F
:10047000D502672F782F8827B85F39F0B93FCCF3C2
:10048000869577956795B395D9F73EF490958095C5
:10049000709561957F4F8F4F9F4F0895E89409C0E5
:1004A00097FB3EF490958095709561957F4F8F4FA7
:1004B0009F4F9923A9F0F92F96E9BB279395F695BD
:1004C000879577956795B795F111F8CFFAF4BB0F3B
:1004D00011F460FF1BC06F5F7F4F8F4F9F4F16C09F
:1004E000882311F096E911C0772321F09EE8872F29
:1004F000762F05C0662371F096E8862F70E060E0E5
:100500002AF09A95660F771F881FDAF7880F96955D
:10051000879597F9089597F99F6780E870E060E004
:1005200008959FEF80EC089500240A94161617068C
:1005300018060906089500240A94121613061406D4
:1005400005060895092E0394000C11F4882352F037
:10055000BB0F40F4BF2B11F460FF04C06F5F7F4FEF
:100560008F4F9F4F089557FD9058440F551F59F0D6
:100570005F3F71F04795880F97FB991F61F09F3F90
:1005800079F087950895121613061406551FF2CFB9
:100590004695F1DF08C0161617061806991FF1CF09
:1005A00086957105610508940895E894BB27662730
:1005B0007727CB0197F908954532510520F4423051
:1005C00010F00C94E702FB011082CB010895BB27C9
:1005D0004A3031F4992322F4BDE2909581959F4FE2
:1005E0000C94F302BB27FB015527AA27880F991FFC
:1005F000AA1FA41710F0A41B83955051B9F7A05D52
:10060000AA3308F0A95DA193009779F7B111B193CE
:100610001192CB010C940C03DC01FC01672F71914A
:100620007723E1F7329704C07C916D9370836291D8
:0C063000AE17BF07C8F30895F894FFCF81
:10063C0054454D503D00430046414E204F4E004620
:08064C00414E204F464600001C
:00000001FF
